:020000040800F2
:10000000200D0020910100086B3900088B270008A3
:10001000693900084F070008CD44000800000000BF
:10002000000000000000000000000000BF3D0008CC
:10003000AB07000800000000BD3D0008C13D0008FE
:10004000AB010008AB010008AB010008AB010008E0
:10005000AB010008AB010008AB010008AB010008D0
:10006000AB010008AB010008AB010008AB010008C0
:10007000AB010008AB010008510700085D0700084C
:100080006907000875070008AB010008AB0100080C
:10009000AB010008AB010008AB010008AB01000890
:1000A000AB010008AB010008AB010008AB01000880
:1000B000AB010008AB010008AB010008992700085C
:1000C0008D270008AB010008AB010008AB01000858
:1000D000AB0100084D440008AB010008AB0100086B
:1000E000AB010008AB010008AB01000800F002F80A
:1000F00000F03FF80AA090E8000C82448344AAF183
:100100000107DA4501D100F034F8AFF2090EBAE880
:100110000F0013F0010F18BFFB1A43F0010318473B
:10012000D0520000F0520000103A24BF78C878C1C5
:10013000FAD8520724BF30C830C144BF04680C60ED
:10014000704700000023002400250026103A28BF35
:1001500078C1FBD8520728BF30C148BF0B60704739
:10016000642900F07980002070471FB51FBD10B5CD
:1001700010BD00F0B7FA1146FFF7F7FF04F03AFAA6
:1001800000F0D5FA03B4FFF7F2FF03BC00F0D8FA91
:100190000948804709480047FEE7FEE7FEE7FEE71B
:1001A000FEE7FEE7FEE7FEE7FEE7FEE70448054957
:1001B000054A064B70470000233E0008ED0000088A
:1001C00020070020200D0020200900202009002009
:1001D0000FB47CB50C0009AA009001D02044401E49
:1001E000084B7B4469460190089800F056FA054692
:1001F0001CB10020694600F063FA28467CBC5DF81B
:1002000014FB0000E504000070B504468569006831
:10021000C10601D5302600E02026C00707D070BDFA
:10022000D4E9012130469047206A401C20626D1EAF
:10023000F6D570BD70B5044685690078C00707D152
:1002400070BDD4E9012120209047206A401C206223
:100250006D1EF6D570BD00002DE9F0410646002464
:1002600010687529314616A510D0AFF3008000281C
:1002700002DA404213A507E031688A0701D512A5CA
:1002800002E0490704D511A5012401E0AFF3008085
:1002900000210A2206F1240709E0B0FBF2FCB0FBC2
:1002A000F2F302FB1C00303078541846491C002839
:1002B000F3D123462A463046BDE8F04100F08FB91D
:1002C000000000002D0000002B00000020000000B6
:1002D0002DE9F05F894604464FF0000ADFF874B15B
:1002E000FB44C0F820A02046E1688847002874D06D
:1002F000252806D0D4E901219047206A401C2062BD
:10030000F1E700265F462046E16888472028054639
:1003100007DB312D05D2781910F8200C08B10643FF
:10032000F1E7B00701D526F00406C4F81CA00027A9
:10033000C4F818A02A2D09D0284604F0D8F838B3FC
:1003400004EB8708303DC8F8185019E059F8041B31
:10035000204604EB87029161E1688847012F05463A
:1003600018D1E069002820DA26F020061DE0D8F830
:10037000180000EB800005EB40003038C8F818008A
:100380002046E1688847054604F0B1F80028EED120
:10039000012F0AD02E2D08D12046E16888477F1C06
:1003A0000546022F46F02006C4DBA069002803DAC8
:1003B000404246F00106A061F00701D026F0100689
:1003C0006C2D0BD0682D09D04C2D39D06A2D35D02D
:1003D000742D35D07A2D33D016E038E0E1682F4601
:1003E00020468847B842054609D16C2F26D04FF4E5
:1003F0008060E168064320468847054604E06C2F8C
:100400001AD04FF4807006430DB3A5F141001928AE
:1004100002D8203546F400664A4629462046266022
:100420004E46FFF79DFE80B101280BD0F61D26F049
:10043000070000F1080956E74020E4E78020D8E7EC
:100440000020D6E706F104094DE7284652E7206A66
:10045000BDE8F09FFA500000032A40F2308010F00F
:10046000030C00F0158011F8013BBCF1020F62444F
:1004700098BF11F801CB00F8013B38BF11F8013BE0
:10048000A2F1040298BF00F801CB38BF00F8013B8D
:1004900011F0030300F02580083AC0F0088051F8FD
:1004A000043B083A51F804CBA0E80810F5E7121D08
:1004B0005CBF51F8043B40F8043BAFF30080D20727
:1004C00024BF11F8013B11F801CB48BF11F8012BF3
:1004D00024BF00F8013B00F801CB48BF00F8012B16
:1004E000704710B5203AC0F00B80B1E81850203AA0
:1004F000A0E81850B1E81850A0E81850BFF4F5AFC4
:100500005FEA027C24BFB1E81850A0E8185044BF4D
:1005100018C918C0BDE810405FEA827C24BF51F8BA
:10052000043B40F8043B08BF7047D20728BF31F8AE
:10053000023B48BF11F8012B28BF20F8023B48BFFF
:1005400000F8012B70474FF000020429C0F0128020
:1005500010F0030C00F01B80CCF1040CBCF1020F76
:1005600018BF00F8012BA8BF20F8022BA1EB0C014B
:1005700000F00DB85FEAC17C24BF00F8012B00F841
:10058000012B48BF00F8012B70474FF0000200B567
:10059000134694469646203922BFA0E80C50A0E8A6
:1005A0000C50B1F12001BFF4F7AF090728BFA0E854
:1005B0000C5048BF0CC05DF804EB890028BF40F820
:1005C000042B08BF704748BF20F8022B11F0804F62
:1005D00018BF00F8012B70477047704770472DE92E
:1005E000F0470D4699469246044600F124080168FA
:1005F000880604D5E06921F01001216000E00120A7
:10060000A84201DD471B00E00027A1697A1902EB2F
:100610000900081AA0612078C00602D42046FFF71E
:10062000F3FD002608E0D4E901211AF806009047FE
:10063000206A401C761C20624E45F4DB2078C00600
:100640000AD52046FFF7E0FD06E0D4E9012130207D
:100650009047206A401C2062381EA7F10107F4DC95
:1006600007E0D4E9012118F805009047206A401CF2
:100670002062281EA5F10105F3DC2046FFF7DAFD14
:100680002078000602D50220BDE8F0870120FBE7B4
:1006900001694A1C02610878704700B58FB0CDE946
:1006A00001310021059105497944CDE90310114636
:1006B0006846FFF70DFE0FB000BD0000E5FFFFFF2D
:1006C0000A6802F8010B0A607047D1E900239A42D8
:1006D00002D2531C0B601070704700000048704736
:1006E000BC0600207546FFF7F9FFAE4605006946D7
:1006F000534620F00700854618B020B5FFF756FD99
:10070000BDE820404FF000064FF000074FF0000812
:100710004FF0000B21F00701AC46ACE8C009ACE893
:10072000C009ACE8C009ACE8C0098D46704710B5F7
:100730000446AFF300802046BDE81040FFF722BD1D
:1007400001491820ABBEFEE7260002007047FEE715
:10075000014800F071B90000F0050020014800F0E8
:100760006BB90000AC050020014800F065B900003D
:1007700034060020014800F05FB900007806002030
:1007800030B590F840500124AC40C56B6C600468F3
:1007900063604368102B036803D099600068C260EF
:1007A00030BD9A600068C16030BD704772B6FEE728
:1007B00070B5040003D094F8200010B104E00120CB
:1007C00070BD204600F082F82068016841F0010108
:1007D000016000F04DFB0546052604E000F048FBF3
:1007E000401B0A2811D820684068C007F6D020684E
:1007F000016821F00201016000F03AFB05460BE0C0
:1008000000F036FB401B0A2806D9606A40F400302D
:10081000606284F82060D2E7206840688007EFD4E7
:10082000207E0128206801683DD021F08001016010
:10083000607E01282068016838D021F04001016005
:10084000A07E01282068016833D021F020010160DA
:10085000E07E0128206801682ED041F0100101607F
:10086000207F01282068016829D021F0080101605B
:10087000607F01282068016824D021F00401016014
:10088000D4E902010843D4E9041211430843616822
:10089000491E08432168C86100206062012084F875
:1008A0002000002070BD41F08001C0E741F0400110
:1008B000C5E741F02001CAE721F01001CFE741F080
:1008C0000801D4E741F00401D9E7000010B586B073
:1008D000002100910191029103910068184988421A
:1008E0002BD11848C16941F00071C161C16901F0A3
:1008F00000710491816941F0080181618069124CA5
:1009000000F0080004904FF4807000906946204683
:1009100000F0B4F9601500900220019003200390CC
:100920006946204600F0AAF90848416821F4C04110
:1009300041F0E06141F48041416006B010BD00002B
:100940000064004000100240000C01400000014023
:1009500010B590F821100022022905D004218163EE
:1009600080F82020012010BD01680B6823F00E03E1
:100970000B6001680B6823F001030B6090F84030B6
:10098000C46B012101FA03F3636080F8211080F841
:100990002020104610BD000010B590F82110002452
:1009A000022903D00421816301243DE001680A6823
:1009B00022F00E020A6001680A6822F001020A6051
:1009C0001A4A0168914201D1012121E0174A1432EB
:1009D000914201D110211BE0144A2832914201D1E9
:1009E000891515E0114A3C32914201D189140FE07A
:1009F0000E4A5032914202D14FF4803108E00B4A46
:100A00006432914202D14FF4801101E04FF08071C5
:100A1000064A083A5160012180F82110002180F82F
:100A20002010416B01B18847204610BD08000240EC
:100A300090F82100704700002DE9F05FC16B0C6851
:100A400001680B68D0F840C0042202FA0CF2494D4C
:100A5000DFF824A1494E4A4FDFF828B1DFF828E13A
:100A600022422CD05A072AD50A68920603D40A6873
:100A700022F004020A600168A94201D1042219E0AF
:100A8000514501D1402215E0B14202D14FF48062BC
:100A900010E0B94202D14FF480420BE0594502D137
:100AA0004FF4802206E0714502D14FF4800201E04C
:100AB0004FF080622F4908394A60C16A3BE04FF02D
:100AC000020808FA0CF818EA040F4FF000094FF07A
:100AD000010235D05FEA837832D50B689B0605D4D6
:100AE0000B6823F00A030B6080F821200168A942FB
:100AF00001D1022219E0514501D1202215E0B14275
:100B000002D14FF4007210E0B94202D14FF400520A
:100B10000BE0594502D14FF4003206E0714502D195
:100B20004FF4001201E04FF00072124908394A6098
:100B300080F82090816A00291AD0BDE8F05F08474C
:100B4000082505FA0CF5254212D01B0710D50B68B5
:100B500023F00E030B6090F84010C36B02FA01F112
:100B60005960826380F8212080F82090016BE2E7D1
:100B7000BDE8F09F080002401C0002403000024027
:100B800044000240580002406C00024030B528B3D7
:100B900008C8134914221944B1FBF2F18900C1635A
:100BA00010498163022141771A6843F6F0718A4344
:100BB000D0E900142143D0E902452C4321430469C4
:100BC0002143446921438469214311431960002171
:100BD0004163012242770177084630BD012030BDD4
:100BE000F8FFFDBF0000024070B5044690F82000F9
:100BF000002501280CD0012084F8200094F8216001
:100C00000020012E06D084F820000225284670BD61
:100C1000022070BD022684F82160A0632068066867
:100C200026F0010606602046FFF7AAFDE06A0028CC
:100C30002068016802D041F00E0106E021F00401B5
:100C400001602068016841F00A01016020680168C4
:100C500041F001010160D9E770B5044600F008F9E0
:100C60000546601C02D004480078044400F000F9F6
:100C7000401BA042FAD370BD280000202DE9F84F98
:100C8000DFF8B8910024A9F1040B23460F2709F1DE
:100C9000040AABF1040EC9E00125A5402A40AA428E
:100CA0007DD1674ED1F804C0ACEB0608B44532D014
:100CB00014DCBCF1030F3AD009DCBCF1000F2AD0E0
:100CC000BCF1010F1CD0BCF1020F31D11DE0BCF111
:100CD000110F17D0BCF1120F2AD119E0B8F5881FF7
:100CE00019D006DCB8F5803F15D0B8F5801F1FD1AC
:100CF00011E0B8F5001F0ED0B8F5041F18D10AE0B6
:100D0000CB6815E0CB681B1D12E0CB6808330FE001
:100D1000CB680C330CE08B682BB1012B4FF0080330
:100D200003D0456104E0042302E0056100E00023F4
:100D3000FF2A01D8064601E000F104064FEA8405C7
:100D400001D9A5F12005D6F8008007FA05FC28EAAC
:100D50000C0803FA05F548EA0508C6F800804D6856
:100D6000ED0062D5374DAE6946F00106AE61AD6962
:100D700024F0030605F001050095334D06EB050C44
:100D8000DCF80850A607360F07FA06F825EA08052A
:100D9000DFF8B880404503D14FF0000817E044E089
:100DA000DFF8AC80404502D14FF001080FE0DFF8DA
:100DB000A480404502D14FF0020808E0DFF8988097
:100DC000404502D14FF0030801E04FF0040808FA53
:100DD00006F848EA0508CCF808804D68D9F80060A4
:100DE000ED024D4601D5164300E096432E604D6856
:100DF000DAF80060AD02554601D5164300E096438F
:100E00002E604D68DBF80060AD035D4601D51643EA
:100E100000E096432E604D68DEF80060ED037546F5
:100E200001D5164300E096432E60641C0D682A46E7
:100E3000E5407FF431AFBDE8F88F000008040140C1
:100E400000001110001002400000014000080140A5
:100E5000000C01400010014000140140806808406F
:100E600000D0012070470AB1016170470904FBE717
:100E700001488068704700002800002070477047D4
:100E80002DE9F041016804464A694E6890F83E0039
:100E90000025D743FA050BD4F243D20508D46FF4EA
:100EA000807201254A6121680A6842F400420A60A2
:100EB000B90508D4F143C90505D422686FF400715F
:100EC00045F002055161790525D4F143C90522D4C5
:100ED000638D94F83D10226B202808D13BB921295D
:100EE00010D029290ED0282901D1212A0AD0226820
:100EF0006FF48061516145F00405102806D0402848
:100F000004D008E0204602F029F904E020680168D6
:100F100041F400710160380508D4F043C00505D4E0
:100F200021686FF4006045F008054861002D07D086
:100F3000206C284320642046BDE8F04101F098BCB5
:100F4000BDE8F0812DE9F047026800215368C66AC8
:100F500090F83E4090F83D50102C12D0402C10D00C
:100F6000046C002C7DD05469E443A6077AD4DE4398
:100F7000B60577D4036C03B19169BDE8F04702F080
:100F8000C9B8976951694FF42A0CC9435FEAC1781F
:100F90004FF02A4904D066452AD04E4528D010E0AB
:100FA000DE43B6050DD4C16A614501D1012103E0DC
:100FB000C16A494501D10821C162BDE8F04702F08C
:100FC0000FB80E0716D4DE43B60513D4416CC9B270
:100FD0001161416B09B1896A29B9816B002907D078
:100FE000896A002904D00068416841F400614160C9
:100FF000BDE8F0878E0706D4DE43B60503D4BDE80E
:10100000F04701F041BFFE43526876074FEA0252B3
:101010001DD4002AECDB0A0608D4DA43520505D4B5
:10102000490705D5BDE8F04701F0D2BE4907DFD436
:10103000D9438905DCD4212D05D0402CD8D1BDE879
:10104000F04702F013B8BDE8F04701F07FBE002A78
:10105000CEDB4A060BD4DA43520508D4490708D53B
:1010600001E00DE00EE0BDE8F04701F031BD4907B9
:10107000BED4D9438905BBD4BDE8F04701F0BBBC61
:10108000916970E7E10606D4D943890503D4BDE828
:10109000F04702F0ABB82821212D27D0292D25D0EB
:1010A000650655D4DD436D0552D4640752D590F8DA
:1010B0003D30448D002C9BD01269446A2270426AF4
:1010C000521C4262428D521E4285428D002A8FD1AF
:1010D0002A2B8DD10268536823F480635360222247
:1010E000026380F83D1000F00DFB81E7250623D454
:1010F000DD436D0520D4640720D590F83D30448D44
:10110000002CF2D0446A24781461426A521C426274
:10111000428D521E4285428D002AE6D1292BE4D110
:101120000268536823F4806353602122026380F8CD
:101130003D1000F0E8FA5BE76107D6D4D943890592
:10114000D3D4418D0029D0D0416A097811610AE0D9
:101150006107CAD4D9438905C7D4418D0029C4D0B9
:101160001169426A1170416A491C4162418D491EF0
:1011700041853DE77047000070B5040025D094F824
:101180003D00002520B984F83C50204600F07CFA50
:10119000242084F83D002068016821F001010160ED
:1011A0002068016841F4004101602068016821F471
:1011B0000041016000F0DCFB4D4A6168914201D8BA
:1011C0004C4900E04C49884201D2012070BD4B4996
:1011D0002368B0FBF1F15E6826F03F060E435E60C7
:1011E0006368934206D94FF4967359434FF47A7368
:1011F000B1FBF3F12368491C1E6A26F03F06314318
:1012000019626168914210D84900401EB0FBF1F2AA
:10121000521CC2F30B02042A01D2042022E0B0FBCC
:10122000F1F0401CC0F30B001CE0A268F2B301EB2C
:10123000C10303EB0116431EB3FBF6F35B1C43F43F
:1012400080431B0549D092B301EBC10202EB0111AF
:10125000401EB0FBF1F0401CC0F30B0040F4804096
:1012600040F400402168CA694CF6FF739A4310436A
:10127000C861D4E9071001432068026822F0C00267
:1012800011430160D4E9030101432068826848F2F8
:10129000FF339A4311438160D4E905010843216873
:1012A000CA6822F0FF021043C86001E00EE016E0B9
:1012B0002068016841F0010101602564202084F864
:1012C0003D00256384F83E50002070BD01EB4106CF
:1012D000431EB3FBF6F35B1CB3E70120C2E701EB4F
:1012E0004101401EB0FBF1F0401CC0F30B00B7E71A
:1012F000A086010080841E0000093D0040420F00CE
:1013000070477047704700002DE9F84F0025DDF861
:101310002890984617468A4604460095FFF7A8FD90
:10132000064694F83D0020287AD1192301228649E7
:101330002046009602F034F80028F5D194F83C00DD
:1013400001286DD0012084F83C0020680168C9079D
:1013500003D1016841F0010101602068016821F4B6
:1013600000610160222084F83D00102084F83E00D6
:1013700025646762A4F82A80608D20857348E06246
:1013800033464A465146204601F01CFC00287CD1D9
:10139000208DDFF8BC81202768B1012814D00228F5
:1013A000206801681ED041F48061016020684169B5
:1013B00080690090BBE02068416981690091016803
:1013C00041F400710160B2E02068016821F480619D
:1013D000016072B62068416981690091016841F439
:1013E00000710AE041F40061016072B62068416951
:1013F00081690091016821F48061016062B696E024
:10140000032865D801280CD002284B464FF0000273
:101410004146204600960BD001F0C2FFA8BB0CE06D
:1014200090E032464946204602F060F868BB71E021
:1014300001F0B6FF48BB72B633E02068016821F4C2
:101440008061016072B620680069616A0870606A34
:10145000401C6062208D401E2085608D401E60858E
:101460003C4846F2A8110068B0FBF1F0C0EBC000A8
:1014700000EB80000090401E009007D0206840697B
:10148000C04340070DD50098F5E727E044F8305FEA
:101490006773A573206940F02000206162B6257350
:1014A0001CE02068016841F4007101602068006957
:1014B000616A0870606A401C6062218D491E218546
:1014C000618D491E618562B621680969017025E058
:1014D00032464946204602F009F810B10120BDE825
:1014E000F88F20680069616A0870606A401C606259
:1014F000208D401E81B22185608D401E6085206850
:101500004269D243520712D4032903D1016821F45E
:101510008061016020680069616A0870606A401C2F
:101520006062208D401E2085608D401E6085208D6C
:1015300000287FF465AF84F83D7084F83E5084F84D
:101540003C50CCE70220CAE7020010000000FFFF79
:1015500004000100340000202DE9F84F1F4690469A
:101560008A460446DDF82890FFF782FC054694F889
:101570003D0020287FD119230122404920460095B3
:1015800001F00EFF002876D194F83C00012872D0BB
:10159000012084F83C0020680168C90703D1016874
:1015A00041F0010101602068016821F400610160DF
:1015B000212084F83D00102084F83E000026266497
:1015C000C4F824806785608D20852D48E0622B4615
:1015D0004A465146204601F06BFB90B920684169AC
:1015E0008069009036E02A464946204601F0B6FF61
:1015F00050B1206C042804D12068016841F40071C6
:1016000001600120BDE8F88F606A216800780861F8
:10161000606A401C6062618D491E6185218D491E92
:1016200089B2218522685369DB435B070BD451B132
:1016300000781061606A401C6062608D401E6085A9
:10164000208D401E20852A464946204601F07CFE1A
:101650000028CED1208D0028C5D154F83D0B01685B
:1016600041F400710160202004F81E09E6776677D6
:101670000020C7E7FFE70220C4E7000002001000D7
:101680000000FFFF7047704710B586B00021009141
:101690000191029103910068174988422AD1174CA1
:1016A000A06940F00800A061A069694600F0080048
:1016B0000490C02000901220019003200390104855
:1016C000FFF7DCFAE06940F40010E061E069002215
:1016D00000F40010049011461F2000F07BF81F203A
:1016E00000F06AF800221146202000F073F8202054
:1016F00000F062F806B010BD005400400010024037
:10170000000C01407047704702488168027811441C
:101710008160704728000020074810B5016841F03B
:1017200010010160032000F075F80F2000F006F8AA
:1017300000F024F8002010BD0020024070B50D4DCF
:1017400004464FF47A712878B1FBF0F00A49096831
:10175000B1FBF0F000F0E2FA48B9102C07D20022F9
:101760002146501E00F036F800206C6070BD01204C
:1017700070BD000028000020340000200C4808B58F
:10178000816941F001018161816901F001010091EC
:10179000C16941F08051C161C06900F08050009082
:1017A0000448416821F0E06141F08061416008BD7A
:1017B0000010024000000140002809DB00F01F0279
:1017C000012191404009800000F1E020C0F80011A3
:1017D00070470000F0B40E4B1B680C46C3F30223A5
:1017E000C3F10705042D00D90425191D072901D2CD
:1017F000002300E0DB1E012606FA05F1491E214008
:1018000099409E40761E16403143F0BC02F05FBE08
:101810000CED00E0064900F0070208684FF6FF03F0
:10182000184040EA0220034A104308607047000055
:101830000CED00E00000FA052DE9F0470F46050029
:1018400061D0434E306800F00700B84209D23068DA
:1018500020F0070038433060306800F00700B842DD
:1018600051D128683B4C810712D5400703D56068E9
:1018700040F4E06060602878000703D5606840F4B9
:10188000605060606068A96820F0F0000843606004
:101890002878C00728D06868012810D0216802285D
:1018A00010D0890700292EDA616821F00301014375
:1018B0006160FFF7DDFA804641F288390DE021686A
:1018C0008903EFE78901EDE7FFF7D2FAA0EB080102
:1018D000494502D90320BDE8F0876068696800F0D7
:1018E0000C00B0EB810FEFD1306800F00700B84278
:1018F0000BD9306820F0070038433060306800F0C2
:101900000700B84201D00120E5E72878400705D557
:101910006068E96820F4E0600843606028780007A8
:1019200006D56068296920F4605040EAC100606013
:1019300000F03EF86168084AC1F30311515CC840E9
:101940000649086006480068FFF7F8FE0020C2E775
:101950000020024000100240C6530008340000205E
:101960002C0000200148006870470000340000206F
:101970000448054900684968044AC1F30221515CE2
:10198000C84070473400002000100240D6530008C1
:101990000448054900684968044AC1F3C221515C02
:1019A000C84070473400002000100240D6530008A1
:1019B0000E4A51680E4801F00C03042B11D0082B7D
:1019C0000FD10C48C1F38343C903C05C0AD55168E9
:1019D000084AC1F34041921E515C054A5043B0FB96
:1019E000F1F070470449484370470000001002407E
:1019F00000127A00B653000800093D002DE9F84FA7
:101A0000040070D02078C04DC00749D06868C0F38A
:101A10008100012807D06868C0F38100022809D13D
:101A20006868C00306D52868800339D56068002837
:101A3000E7D035E06068B0F5803F0BD010B1B0F56D
:101A4000A02F11D0286820F480302860286820F466
:101A5000802002E0286840F480302860606890B1FF
:101A6000FFF706FA06460AE0286840F4802028605E
:101A7000F0E700BFFFF7FCF9801B642873D82868E3
:101A80008003F7D50CE0FFF7F3F9064605E000BF49
:101A9000FFF7EEF9801B6428F0D828688003F7D49C
:101AA00020789A4E80074FF001094FF0000839D591
:101AB000686810F00C0F07D06868C0F38100022836
:101AC00009D16868C00306D42868800714D5206946
:101AD000012808D110E02069B0B1C6F80090FFF7E6
:101AE000C7F9074605E00AE1FFF7C2F9C01B022863
:101AF000C4D828688007F7D52868616920F0F80005
:101B000040EAC10028600DE0C6F80080FFF7B0F998
:101B1000074604E0FFF7ACF9C01B022823D8286869
:101B20008007F7D4207800072CD57948A169D9B16E
:101B3000C0F80090FFF79CF9074604E0FFF798F91A
:101B4000C01B02280FD8686A8007F7D571484FF488
:101B5000FA510068B0FBF1F0009000BF0098411E00
:101B60000091FAD20EE080E0C0F80080FFF780F923
:101B7000074604E0FFF77CF9C01B022875D8686AA5
:101B80008007F7D42078400760D5E8690027C000B7
:101B900008D4E86940F08050E861E869012700F066
:101BA000805000905C480168C90513D401688346E1
:101BB00041F480710160FFF75BF9824606E000BFE7
:101BC000FFF756F9A0EB0A0064284ED8DBF80000B6
:101BD000C005F5D5E06801280AD008B1052813D062
:101BE000286A20F001002862286A20F0040002E040
:101BF000286A40F001002862E06841F2883B98B111
:101C0000FFF736F982460BE0286A40F004002862AC
:101C1000EEE700BFFFF72CF9A0EB0A0159455AD8AF
:101C2000286A8007F6D50CE0FFF722F9824605E026
:101C3000FFF71EF9A0EB0A0159454CD8286A800726
:101C4000F6D41FB1E86920F08050E861E06988B3FC
:101C50006968C1F38101022944D00228C6F8608076
:101C600004D0FFF705F9044638E034E0FFF700F947
:101C7000074604E0FFF7FCF8C01B02282BD82868B1
:101C80008001F7D4206AB0F5803F05D16868A1686B
:101C900020F4003008436860D4E90801084369680B
:101CA00021F4741108436860C6F86090FFF7E0F80B
:101CB000044606E025E000BFFFF7DAF8001B022823
:101CC00009D828688001F7D51BE000BFFFF7D0F8DE
:101CD000001B022802D90320BDE8F88F2868800184
:101CE000F4D40EE00128F7D06868226A00F480314D
:101CF000914204D1616A00F47010884201D0012041
:101D0000EAE70020E8E7000000100240000042423D
:101D100080044242340000200070004010B5401E94
:101D2000B0F1807F01D3012010BD4FF0E02460614D
:101D30000F21601702F0CBFB0020A061072020617B
:101D4000002010BD10B590F83C20012A22D00122BD
:101D500080F83C20CA688C6822F4407222434C68A8
:101D600022F4806222430C6822F4006222430C6950
:101D700022F4805222434C6922F400522243C96962
:101D8000002322F480420A4301684A6480F83C3010
:101D9000002010BD022010BD70B590F83C20012A33
:101DA00026D0012480F83C40022280F83D200368C0
:101DB0005A689D6822F070060A6832435A600D4BDB
:101DC00002689A4208D0B2F1804F05D00A4B9A427D
:101DD00002D00A4B9A4204D1496825F08003194386
:101DE000916080F83D40002180F83C10084670BDAD
:101DF000022070BD002C014000040040000800409B
:101E000010B5040003D094F83D0010B107E00120A4
:101E100010BD002084F83C00204600F01FF802208E
:101E200084F83D00211D206801F0FCFF012084F8AA
:101E3000460084F83E0084F83F0084F8400084F8AF
:101E4000410084F8420084F8430084F8440084F898
:101E5000450084F83D00002010BD000008B50C4A84
:101E600001680C48914207D1816941F400618161A8
:101E7000806900F4006009E0074A914207D1C16916
:101E800041F00201C161C06900F00200009008BD8C
:101E9000002C0140001002400004004070B50446D0
:101EA00090F83C000025012817D0012684F83C60FA
:101EB000022084F83D002068826822F0770222F434
:101EC0007F4282600868502838D00DDC20284FD02F
:101ED00005DC90B3102811D14AE0022070BD3028F3
:101EE00046D040280AD13BE060282FD070280DD082
:101EF000B0F5805F03D0B0F5005F12D0012584F803
:101F00003D60002084F83C00284670BDCB68D1E9D4
:101F10000121206801F0CFFF2068816841F077013E
:101F200009E0CB68D1E90121206801F0C4FF2068F5
:101F3000816841F480418160E1E719E0CA6849683D
:101F4000206802F06DF85021206806E0CA684968F0
:101F5000206802F076F86021206801F0B6FFCEE735
:101F6000CA684968206802F05BF840212068F4E7FD
:101F7000226801461046F0E700B585B000210091C7
:101F8000019102910391154B0268154802219A4272
:101F90000FD1826942F0040282618069039100F0EE
:101FA000040004904FF41060CDE9000169460D482B
:101FB0000FE00D4B9A420ED1826942F00802826115
:101FC0008069009100F008000191CDE90310694695
:101FD0000648FEF753FE05B000BD0000002C01408E
:101FE000001002400008014000040040000C0140C5
:101FF00070B5044690F83C0000260D4601280FD02D
:10200000012084F83C006AB1042A1DD0082A2FD090
:102010000C2A3FD00126002084F83C00304670BDD9
:10202000022070BD206801F059FF2068816941F0ED
:10203000080181612068816921F0040181612068C3
:1020400081692A69114311E0206801F06FFF20685F
:10205000816941F4006181612068816921F48061B6
:102060008161206881692A6941EA02218161D2E7A0
:10207000206801F087FF2068C16941F00801C16153
:102080002068C16921F00401C1612068C1692A6921
:10209000114311E0206801F0A1FF2068C16941F4FB
:1020A0000061C1612068C16921F48061C16120685B
:1020B000C1692A6941EA0221C161ACE710B5040097
:1020C00003D094F83D0010B107E0012010BD0020BE
:1020D00084F83C00204600F01EF8022084F83D0001
:1020E000211D206801F09EFE012084F8460084F83E
:1020F0003E0084F83F0084F8400084F8410084F8F2
:10210000420084F8430084F8440084F8450084F8D1
:102110003D00002010BD704710B50446022249B1B1
:1021200004290ED0082913D094F84100012816D0B4
:10213000012010BD94F83E000128F9D184F83E201A
:102140000FE094F83F000128F2D184F83F2008E026
:1021500094F840000128EBD184F8402001E084F895
:1021600041200122206801F099FE0F492068884231
:1021700003D1426C42F4004242642068884208D095
:10218000B0F1804F05D00949884202D00849884201
:1021900004D1816801F00701062903D0016841F0EC
:1021A00001010160002010BD002C0140000400402E
:1021B00000080040704710B504460068406994F874
:1021C0004110C0F3C010212911D180B12068143012
:1021D00050E8001F21F0800140E80012002AF5D1EC
:1021E000A06B08B1FEF7B4FB204601F0E2FF2068C7
:1021F000406994F84210C0F38010222911D180B1B7
:102200002068143050E8001F21F0400140E800121F
:10221000002AF5D1E06B08B1FEF79AFB204601F0E9
:10222000A1FF002010BD7047F8B50168044608689A
:10223000CA684B6910F00F0F4FF0000559D003F03A
:10224000010602F49077374365D0C10705D0D10568
:1022500003D5616C41F001016164410705D5D907DF
:1022600003D0616C41F002016164810705D5D90793
:1022700003D0616C41F004016164010707D502F0ED
:102280002001314303D0616C41F008016164616C4D
:1022900000293AD0800604D5900602D5204601F0E8
:1022A00096FF20684069616CC0F38010090700D474
:1022B00060B3204601F056FF20684069400621D5F2
:1022C0002068143050E8001F21F0400140E800125F
:1022D000002AF5D1E06BA8B16D494163E06BFEF7D0
:1022E0005BFB002811D0E06B416B01B0BDE8F04012
:1022F000084783060FD593060DD52046BDE8F84064
:1023000001F065BF2046FFF78EFFF8BD2046FFF7BE
:102310008AFF6564F8BD266B2023012E7CD1C6069A
:102320007AD5D60678D508684868009048694FF095
:102330000206400640D5E16B086840680004000CC6
:10234000E8D0A28D8242E5D9E085886920282DD089
:1023500020680C3050E8001F21F4807140E8001222
:10236000002AF5D12068143050E8001F21F0010147
:1023700040E80012002AF5D12068143050E8001F10
:1023800021F0400140E80012002AF5D184F84230E3
:10239000256320680C3050E8001F21F0100140E850
:1023A0000012002AF5D1E06BFEF7D2FA6663A08D29
:1023B000E18D401A81B22AE0A08DE18D401A81B2F0
:1023C000E08D0028A6D00029A4D022680C3252E863
:1023D000000F20F4907042E80007002FF5D120682C
:1023E000143050E8002F22F0010240E80027002FAF
:1023F000F5D184F84230256320680C3050E8002F76
:1024000022F0100240E80023002BF5D1666320463D
:10241000FFF7D0FEF8BDFFE705062BD5150629D539
:1024200094F841002128F5D1A068B0F5805F01D172
:102430002069B0B1206A411C21622168007848609F
:10244000E08C401E0004000CE084E3D12068C168E9
:1024500021F08001C1602068C16841F04001C16085
:10246000D8E7206A0088C0F308004860206A801C12
:102470002062E5E74006CDD55006CBD5CA68204698
:1024800022F04002CA6084F8413000F07DF9C1E7D3
:102490006740000870B5040004D094F8410000259E
:1024A00010B106E0012070BD84F84050204600F0D5
:1024B00023F8242084F841002068C16821F40051E9
:1024C000C160204601F0E4FE2068016921F49041DA
:1024D00001612068416921F02A0141612068C168D9
:1024E00041F40051C1606564202084F8410084F803
:1024F00042006563002070BD2DE9F04385B00025E2
:1025000000950195029503950446DFF89CC1036888
:10251000664802210322664F80264FF480684FF000
:10252000100963454FD1836943F480438361836914
:1025300003F480430493836943F004038361806957
:10254000039200F0040004900802CDE900016946FE
:102550003846FEF793FBCDE900856946384602957B
:10256000FEF78CFB544F5348C7E90005C7E90256F4
:102570003D617D61BD613846FD61FEF707FB08B135
:10258000FEF714F9E7637C624B4F4A48443714382E
:10259000C7E902563D617D61BD61FD61C7E9000982
:1025A0003846FEF7F3FA08B1FEF700F9A7630022F8
:1025B000114625207C62FFF70DF92520FFF7FCF876
:1025C00005B0BDE8F083DFF8F4C0634548D1C369C6
:1025D00043F40033C361C36903F400330493836994
:1025E00043F0040383618069039200F004000490C7
:1025F0000420CDE9000169463846FEF73FFB08207C
:10260000CDE90005694638460295FEF737FB2A4FAB
:10261000284888371430C7E90005C7E902563D61EC
:102620007D61BD613846FD61FEF7B0FA08B1FEF785
:10263000BDF8E7637C62204F1E48CC372830C7E9DD
:1026400002563D617D61BD61FD61C7E90009384603
:10265000FEF79CFA08B1FEF7A9F8A7637C62AFE722
:10266000174CA342ACD1C36943F48023C361C3694F
:1026700003F480230493836943F008038361806932
:10268000CDE9008100F00800CDE903200D4C69463A
:102690002046FEF7F3FAE014CDE90005694620462E
:1026A0000295FEF7EBFA8BE700380140001002407C
:1026B0000008014058000240AC05002000440040E2
:1026C00000480040000C014090F84230202B01D01F
:1026D0000220704721B11AB10023036301F034BE18
:1026E00001207047704770472DE9F843044690F881
:1026F0004100984616460D46202802D00220BDE82B
:10270000F88385B17EB100206064212084F8410007
:10271000FEF7AEFBA6848146E684A0682027B0F5CC
:10272000805F02D003E00120E9E7206910B12E4666
:1027300000250EE000260CE08021204601F04CFE32
:10274000A8B9C6B116F8010B21684860E08C401E9C
:10275000E084E08C4B464FF00002CDF8008000286A
:10276000EAD14FF04001204601F036FE40B184F836
:1027700041700320C3E735F8020BC0F30800E3E71C
:1027800084F841700020BAE77047FEE70148FEF781
:1027900077BB0000F00300200148FEF7D3BB000028
:1027A000F003002038B5406A002190F83D202B4B03
:1027B00046F2A8141B68B3FBF4F3C3EBC30303EBAB
:1027C000830300933BB15B1E009303681B689B056A
:1027D00005D5009BF6E7036C43F020030364436BCD
:1027E00003B19962836B03B1996203681C6824F496
:1027F00080641C604185436B03B15963836B03B1F3
:10280000596303681C6824F001041C6090F83D4083
:102810002023602C0BD0282434EA02020FD080F849
:102820003D3080F83E1000BFFEF7A4FC38BD80F8B4
:102830003D3080F83E100164FEF720FB38BD026891
:10284000136843F0010313600268136843F4806364
:102850001360016380F83D40E6E70000340000208B
:1028600000684169C943090601D40021016170472C
:1028700070B5044690F83D0094F83E10102901D040
:10288000402906D1222804D121680A6822F4006276
:102890000A60282131EA00024FF000054FF02006BF
:1028A00026D021684968090505D4602803D084F83A
:1028B0003D6084F83E50256320684168090537D59E
:1028C000416821F400614160606B90F821203C492F
:1028D000012A11D04163606BFEF75EF838B32068BF
:1028E000016821F00101016084F83D60606B1CE02B
:1028F000256384F83D10DFE7A06B4163A06BFEF712
:102900004BF8A0B120684169C943490605D4006964
:10291000616A0870606A401C60622068016821F08A
:102920000101016084F83D60A06B416B884710E0B5
:1029300094F83D10602910D04169C943490605D477
:102940000069616A0870606A401C60622046FEF798
:1029500011FC206CC1071CD115E084F83D60256492
:102960004169C943490605D40069616A0870606A13
:10297000401C60622068016821F00101016020466E
:10298000FEF77CFAE5E7810703D4410701D400078D
:1029900004D52068416821F4E061416094F83D006D
:1029A000216C49070BD5282809D10648E062256328
:1029B00084F83D6084F83E502046FEF7A1FC70BDCF
:1029C000A52700080000FFFF01684A69D2435205AD
:1029D0000FD46FF480624A61002140F8301F20223A
:1029E00042738173026942F00402026101730120A3
:1029F00070470020704710B5C26A438D0168042BF0
:102A000006D0438D032B08D0438D022B1DD012E03E
:102A10004A6822F480624A600CE04B6823F48063C9
:102A20004B60042A06D0022A04D001680A6822F406
:102A300080620A6001680969426A1170416A491C32
:102A40004162418D491E418510BD012A34D0102AB2
:102A500032D0042A34D0022A32D00B6843F40073F7
:102A60000B6001680969436A1970416A491C416237
:102A7000438D5B1E438503681B690B70416A491CCB
:102A80004162418D491E418501684B6823F44073C2
:102A90004B60202180F83D1090F83E300021402B03
:102AA00080F83E1010D0082A02D0202A00D012212F
:102AB0000163FEF726FC10BD0B6823F48063CFE7AB
:102AC0000B6843F48063CBE70163FEF7DBFD10BDC9
:102AD00038B590F83D10222910D1C36A418D0329E1
:102AE0000DD901680969426A1170416A491C416245
:102AF000418D491E4185418D032906D038BDC26AEA
:102B0000022A02D0012906D029B10068416821F4C7
:102B10008061416038BD2A4A46F2A814002112683B
:102B2000B2FBF4F202EB8202009202682024009DC4
:102B30006D1E009526D01568AD05F8D4156825F4EE
:102B4000806515600268556825F4E0655560026887
:102B50001269456A2A70426A521C4262428D521EB4
:102B6000428580F83D4090F83E2080F83E10402A93
:102B700021D0082B02D0202B00D012210163FEF7B8
:102B8000C0FB38BD036C43F020030364536823F497
:102B9000E063536002681269436A1A70426A521C09
:102BA0004262428D521E428580F83D4080F83E10C0
:102BB000FEF7E0FA38BD0163FEF764FD38BD0000A2
:102BC000340000202DE9F84F0446C06A1E469346A3
:102BD0000D4621680A6842F480620A60082807D01E
:102BE000012805D010F5803F02D0206B112804D1B8
:102BF0002068016841F4807101604FF001195B4663
:102C0000002249462046009600F0CAFB4FF40078A7
:102C100040B120680068C00501D5C4F84080032099
:102C2000BDE8F88F2069DFF884A0B0F5804F0FD0A1
:102C30000620216800EAD51747F0F0000861334606
:102C40005A460AF10601204600F0F2FB58BB03E0A9
:102C5000E8B240F001001CE02168E8B208613346A8
:102C60005A465146204600F0E3FBE0B9206841692E
:102C700081690091016841F4807101605B46002226
:102C800049462046009600F08BFB0028C1D147F052
:102C9000F1002168086133465A465146204600F04B
:102CA000C7FB0028BCD00120BAE7000002000100E9
:102CB000F8B50446C06A1E460D461746082807D0D8
:102CC000012805D010F5803F02D0206B122804D1D6
:102CD0002068016841F480710160134600224FF0C2
:102CE00001112046009600F05BFB40B120680068AF
:102CF000C00502D54FF4007020640320F8BD2069A0
:102D0000B0F5804F0ED00620216800EAD51040F0C3
:102D1000F000086133463A460B49204600F088FB34
:102D200078B902E005F0FE0000E0E8B22168086131
:102D3000054933463A46891F204600F079FB0028B2
:102D4000DCD00120F8BD00000800010010B5C26A07
:102D500090F83D1021290BD1418D51B1416A026893
:102D600009781161416A491C4162418D491E4185C2
:102D700010BD20230021082A13D0202A11D012F5DB
:102D8000803F0ED00268546824F4E064546011223D
:102D9000026380F83E1080F83D3000BFFEF7B2FAC3
:102DA00010BD0268546824F4E0645460026814683A
:102DB00044F400741460016380F83D3090F83E20C4
:102DC00080F83E10402AE9D1FEF75DFC10BD0000FE
:102DD00010B590F83D1090F83E30C26A048DB4B141
:102DE000212903D0402B11D122290FD1418DE1B3EC
:102DF00090F83E10402942D0416A0268097811617A
:102E0000416A491C4162418D491E418510BD2129FD
:102E1000E8D120230021082A13D0202A11D012F54E
:102E2000803F0ED00268546824F4E064546011229C
:102E3000026380F83E1080F83D3000BFFEF762FA72
:102E400010BD0268546824F4E06454600268146899
:102E500044F400741460016380F83D3090F83E2023
:102E600080F83E10402AE9D100E002E0FEF70BFCBA
:102E700010BD0068416821F48061416010BDBDE86B
:102E8000104000F0F3B8000078B590F83E50C26AE8
:102E9000046B90F83D6000230168222E73D1066D0B
:102EA0000EB9402D6FD0056D1DB90569B5F5404FC0
:102EB0001BD0458D95B3468D484D012E20D0448DB5
:102EC000022C4DD00C6844F480640C6001684C689E
:102ED000240579D5AA4273D0012A71D0082A6FD06F
:102EE000102A6DD0202A6BD06EE04A698A69009260
:102EF0000A6842F480720A60016D491C016578BD60
:102F0000AA4214D10A6822F480620A6001684A6801
:102F1000120504D50A6822F4806217E0FFE74A69C7
:102F20008A6900920A6842F400720A6050E0082A36
:102F300010D0202A0ED0122C0AD0042A03D0022A44
:102F400001D0102AE6D10A6842F480620A603BE0B0
:102F5000012ADFD00A6822F480620A600168DEE795
:102F6000042A11D0022A0FD0102A0DD00C6844F484
:102F700000640C6001684C698C6900940C6824F44E
:102F800080640C6008E025E00C6844F480640C6008
:102F900001684C698969009101684C68240517D55E
:102FA000AA4207D0012A05D0082A03D0102A01D04E
:102FB000202A0DD14A6842F480524A6008E0FFE7B7
:102FC0004A6842F480524A6001684A6989690091FE
:102FD000036578BD48698869009078BD0000FFFFEF
:102FE00090F83E10402910D00169B1F5804F19D0FA
:102FF000016DA9B3016D012910D1416C5FF0F1029F
:1030000001F4407142EAD11106E0016D0029416CE2
:1030100005D0C9B241F0010100680161704701F0BB
:10302000FE01F9E790F83D102129416C09D0C9B2A1
:1030300041F0010102681161416B29B1896A49B906
:1030400002E001F0FE01F5E7816B0029E6D0896A14
:103050000029E3D00068416841F400614160704795
:10306000FFE7416CF02201F44071CBE710B590F816
:103070003D10026D4AB1026D012A14D0026D022A80
:1030800016D0BDE81040FFF7EBBBC16C0129816C85
:1030900002D0C1F3072108E00268C9B21161016DD5
:1030A000891C016510BD816CC9B20268116123E001
:1030B00022291CD0428D0AB1212920D0428D002A1C
:1030C000F0D12129EED101684A6822F4E0624A6019
:1030D00001680A6842F400720A600021016320223C
:1030E00080F83D2080F83E10FEF7CDFA10BD016853
:1030F0000A6842F480720A60016D491CD1E7416A96
:10310000026809781161416A491C4162418D491E7A
:10311000418510BD38B50C4690F83D20002128258A
:10312000954302680B4605D051699169009180F87A
:103130003C3038BD556825F480655560E24354073E
:1031400000D50121120601D5828900E0028B80F8AA
:103150003C3092B2FDF793FE38BD00002DE9F041FE
:1031600090F83D300446C26A002120261E4F0068B8
:103170006FF48065082A01D0202A01D1282B04D0C1
:10318000212B17D04561BDE8F081E762426822F447
:10319000E0624260206845612068026822F4806233
:1031A0000260216384F83D6084F83E102046FEF7FB
:1031B000A7F8E8E7E7622122226384F83D6084F8FB
:1031C0003E10416821F4E06141602068456120685B
:1031D000016821F4806101602046FFF741FB204631
:1031E000FEF791FACFE700000000FFFFF8B590F876
:1031F0003D6004460068416821F4E0614160206858
:10320000002541690091016841F0010101602068D9
:10321000016821F48061016020684168090520D5BA
:10322000474F222E48D02A2E46D0616B0968496844
:103230006185618D19B1216C41F0040121644168FF
:1032400021F400614160606BFDF7F2FB012808D0BA
:10325000606B4763606BFDF79FFB10B1606B416B68
:103260008847608D08B320684169C943490708D47D
:103270000069616A0870606A401C6062608D401E6F
:10328000608520684169C943490608D40069616ABC
:103290000870606A401C6062608D401E6085608DB1
:1032A00018B1206C40F004002064206C00B320466C
:1032B000BDE8F840FFF7DCBAA16B09684968618591
:1032C000618D19B1216C41F004012164416821F440
:1032D00000614160A06BFDF7ABFB0128C1D0A06B82
:1032E0004763A06BFDF758FB0028BAD0A06BB6E788
:1032F0002A2E06D12563282084F83D002046FEF7BB
:1033000001FA94F83D10202028290DD0216B2229A4
:1033100001D0222E07D1256384F83D0084F83E5069
:103320002046FEF7EFF9F8BD0649E162256384F80F
:103330003D0084F83E502046FDF7E2FFF8BD000056
:10334000A52700080000FFFF70B516460D4604468D
:103350001EE02046FFF738FB08B1012070BD681C55
:1033600016D0FDF785FD801BA84200D885B92068DE
:103370004069C04340070BD5002044F8300F20219E
:103380006173A073216941F0200121612073E4E79A
:1033900020684069C0434007DBD4002070BD0000B6
:1033A0002DE9F047984617460D460446C1F30746F7
:1033B000DDF820902AE000BFB8F1FF3F26D0FDF7EE
:1033C00057FDA0EB0901414502D8B8F1000F1DD10E
:1033D0002068012E16D0806925EA00000004000C48
:1033E00012D00020B84211D1002044F8300F202123
:1033F0006173A073216941F02001216120730120D4
:10340000BDE8F0874069E7E70120EBE72068012E7F
:103410000AD0806925EA00000004000C06D00020D4
:10342000B842C9D00020EBE74069F3E70120F7E795
:103430002DE9F047984616460D4604464FF0000920
:103440004FF0200AC1F3074723E020684069C043DA
:10345000400515D42068016841F4007101602168BD
:103460006FF480604861C4F8309084F83DA084F81F
:103470003E90216C41F00401216484F83C9021E0ED
:10348000701C06D0FDF7F4FCA0EB0800B04203D896
:1034900016B1012F1FD021E02068012F15D08069BF
:1034A00025EA00000004000C18D000BF44F8309F4B
:1034B00084F80DA084F80E90216941F0200121616B
:1034C00084F80C900120BDE8F087406925EA0000EF
:1034D0000004000CEAD12068406901E0206880699E
:1034E00025EA00000004000CAFD1ECE72DE9F04123
:1034F000002590460E460446202728E04069C04338
:10350000C0060CD454F8301B6FF01000486144F82A
:1035100010596777A577206A2062257714E0FDF7B8
:10352000A7FCA0EB0800B04200D886B9206840692B
:10353000C04340060BD544F8305F6773A57320691C
:1035400040F02000206125730120BDE8F081206853
:103550004169C9434906D1D40020F6E770B5164643
:103560000D4604461EE02046FFF72EFA08B1012062
:1035700070BD681C16D0FDF77BFC801BA84200D8EC
:1035800085B920684069C04300060BD5002044F887
:10359000300F20216173A073216941F02001216166
:1035A0002073E4E720684069C0430006DBD40020B4
:1035B00070BD00000D4810B50B490160102141603D
:1035C00000218160C16001614161017641768176AF
:1035D000C17601774177FDF7EBF8002803D0BDE80D
:1035E0001040FDF7E3B810BD00640040C8030020A0
:1035F000154808B5416941F0010141614069002267
:1036000000F00100009011460E20FEF7E3F80E20B6
:10361000FEF7D2F8002211460F20FEF7DBF80F204C
:10362000FEF7CAF8002211461020FEF7D3F810204A
:10363000FEF7C2F8002211461120FEF7CBF8BDE8D4
:1036400008401120FEF7B8B80010024030B585B030
:1036500000241C480094019402940394816941F071
:1036600020018161816901F020010491816941F0AB
:1036700004018161816901F004010491816941F0D3
:10368000080181618069104D00F00800049000225B
:10369000B0212846FDF7E7FBB02000900120CDE9DE
:1036A00001040220039069462846FDF7E7FA40200E
:1036B000CDE90004694628460294FDF7DFFA05B01B
:1036C00030BD000000100240000801400D4810B558
:1036D0000B4901600C49416000214FF48042816038
:1036E000C0E9031241618161C1610162FDF744FDDE
:1036F000002803D0BDE81040FDF758B810BD000009
:1037000000540040F0030020A086010010B596B0E0
:1037100000240F9410941194129413941C21684661
:103720001494FCF732FF202107A8FCF72EFF2D4848
:103730002B4901601F21C0E9011444F61F61C0E953
:1037400003148021C0E90541FEF75AFB08B1FDF7DB
:103750002DF84FF480500F900FA92248FEF79EFBE2
:1037600008B1FDF723F81F48FEF7A8FC08B1FDF7E4
:103770001DF8139413A91B481494FEF70DFB08B110
:10378000FDF714F86020CDE900040294039404943A
:1037900005940022694613480694FEF729FC08B1F7
:1037A000FDF704F80C2269460E48FEF721FC08B12B
:1037B000FCF7FCFF0794089409944FF400500A9416
:1037C000CDE90B4007A907480E94FEF7BBFA08B1F4
:1037D000FCF7ECFF0348FEF7CFFB16B010BD00006E
:1037E000002C01404404002010B58EB00024079442
:1037F000089409940A940B941C2168460C94FCF7D5
:10380000C4FE1E481C4901604721C0E9011440F272
:10381000F311C0E903148461FEF7F2FA08B1FCF772
:10382000C5FF4FF48050079007A91448FEF736FBF8
:1038300008B1FCF7BBFF1148FEF740FC08B1FCF7EC
:10384000B5FF0B940BA90D480C94FEF7A5FA08B12F
:10385000FCF7ACFF6020CDE9000402940C2269461D
:1038600006480494FEF7C4FB08B1FCF79FFF034829
:10387000FEF782FB0EB010BD000400408C04002057
:1038800038B5134C11480C2120604FF4E1306060D2
:103890000020A060E060C4E90401A061E06120466E
:1038A000FEF7F8FD08B1FCF781FF20680168416868
:1038B0000091C16841F01001C160BDE838404FF48B
:1038C000967204490248FEF7FFBE0000003801402E
:1038D000D40400204100002038B5134C11480C21BD
:1038E00020604FF4E13060600020A060E060C4E937
:1038F0000401A061E0612046FEF7CCFD08B1FCF7B1
:1039000055FF2068016841680091C16841F01001CD
:10391000C160BDE838404FF4967204490248FEF792
:10392000D3BE0000004400401C0500209902002086
:103930000C4810B50A4901604FF4E13141600021A3
:1039400081600C22C160C0E904128161C161FEF78F
:10395000A1FD002803D0BDE81040FCF727BF10BD33
:103960000048004064050020FEE7FEE74FF4CC72FB
:1039700051434FF48772B1FBF2F20021663200F03E
:103980001BBF70B50C4605460021084600F038FF05
:10399000284600F0C1FE4FF4CC7044434FF48770CA
:1039A000B4FBF0F4663400212246084600F004FF20
:1039B00022460021012000F0FFFE224600210220C5
:1039C00000F0FAFE22460021032000F0F5FE224618
:1039D0000021042000F0F0FE22460021052000F026
:1039E000EBFE22460021062000F0E6FE22460021E2
:1039F000072000F0E1FE22460021082000F0DCFE56
:103A000022460021092000F0D7FE224600210A208C
:103A100000F0D2FE224600210B2000F0CDFE22460F
:103A200000210C2000F0C8FE224600210D2000F0ED
:103A3000C3FE224600210E2000F0BEFE22460021D9
:103A40000F2000F0B9FEBDE870404FF4FA70FDF7AA
:103A500003B900000149085C7047000038000020ED
:103A60000020044902460A54401CC0B20928FAD377
:103A70007047000038000020F8B506460120ADF878
:103A80000000214C00216170ADF800001F4D4FF681
:103A9000FF772FE0BDF80000304201D0012200E0A6
:103AA000002280212846FDF7DEF901222021284648
:103AB000FDF7D9F9052000F021FD0022202128463C
:103AC000FDF7D1F9052000F019FD0122202128463B
:103AD000FDF7C9F940212846FDF7C0F920B160780B
:103AE000BDF8001008436070BDF8000007EA400010
:103AF000ADF80000BDF80000FF28CBD9BDE8F840C4
:103B0000102000F0FBBC000038000020000801403D
:103B100010B5174C002210212046FDF7A4F9102003
:103B200000F0ECFC0120FFF7A7FF4320FFF7A4FF04
:103B30000020FFF7A1FF0120FFF79EFF0020FFF705
:103B40009BFF0020FFF798FF0020FFF795FF002064
:103B5000FFF792FF0020FFF78FFF01221021204680
:103B6000FDF781F9BDE81040102000F0C7BC00004F
:103B70000008014010B5174C002210212046FDF727
:103B800072F9102000F0BAFC0120FFF775FF432006
:103B9000FFF772FF0020FFF76FFF0020FFF76CFFB9
:103BA0005A20FFF769FF5A20FFF766FF5A20FFF7F8
:103BB00063FF5A20FFF760FF5A20FFF75DFF0122E5
:103BC00010212046FDF74FF9BDE81040102000F00D
:103BD00095BC0000000801402DE9FC4100208DF853
:103BE00000000126ADF804602B4C0246102120464F
:103BF000FDF739F9294D2878FFF73EFFA878FFF740
:103C00003BFF02208DF80000254D4FF6FF7737E08F
:103C1000ADF8046028E0012220212046FDF723F9B9
:103C2000052000F06BFC002220212046FDF71BF947
:103C3000052000F063FC012220212046FDF713F946
:103C400040212046FDF70AF940B19DF80000BDF87B
:103C50000410285C08439DF800106854BDF8040067
:103C600007EA4000ADF80400BDF80400FF28D2D9EF
:103C7000102000F043FC9DF80000401C8DF800006F
:103C80009DF800000928C3D302B02046BDE8F041EA
:103C900001221021FDF7E7B80008014002000020D2
:103CA0003800002010B500F00FF800F00DF800F01B
:103CB0000BF8FFF72DFF00F02DF800F059F8BDE8E4
:103CC0001040FFF757BF000010B5114C0022102123
:103CD0002046FDF7C8F8102000F010FC0120FFF787
:103CE000CBFE4220FFF7C8FE0020FFF7C5FE0020F4
:103CF000FFF7C2FE0020FFF7BFFE01221021204681
:103D0000FDF7B1F8BDE81040102000F0F7BB00004F
:103D10000008014010B5154C002210212046FDF787
:103D2000A2F80120FFF7A8FE4420FFF7A5FE00201F
:103D3000FFF7A2FE0120FFF79FFEEE20FFF79CFE9B
:103D40000020FFF799FE0020FFF796FE0020FFF706
:103D500093FE0020FFF790FE012210212046FDF780
:103D600082F8BDE81040102000F0C8BB00080140F8
:103D700010B5114C002210212046FDF774F81020D8
:103D800000F0BCFB0120FFF777FE4D20FFF774FE2B
:103D90000020FFF771FE0020FFF76EFE0120FFF705
:103DA0006BFE012210212046FDF75DF8BDE81040B2
:103DB000102000F0A3BB00000008014070477047CE
:103DC000FDF7A2BC30B58FB028216846FCF7DDFBBB
:103DD00014210AA8FCF7D9FB01210804CDE9001041
:103DE0000024029402250491CDE907504FF4E0101D
:103DF00009906846FDF702FE08B172B6FEE70F2093
:103E0000CDE90A054FF48060CDE90C4002210AA8F3
:103E10000E94FDF711FD002801D072B6FEE70FB039
:103E200030BD7047F0B50268194B1A4C1A4D4FF06F
:103E30008047984205D0B84203D0A04201D0A842A2
:103E400003D122F070064A683243984205D0B84246
:103E500003D0A04201D0A84203D122F44074CA6822
:103E600022434C6922F08002224302608A68C262C7
:103E70000A688262984201D10969016301214161A6
:103E80000169C90703D0016921F001010161F0BD99
:103E9000002C0140000400400008004010B501F073
:103EA0001F030121046A99408C430462016A9A400D
:103EB0001143016210BD10B5846842EA032224F464
:103EC0007F440A432243826010BD826822F0700260
:103ED0000A4342F0070181607047000030B5036A71
:103EE000026A22F0010202624268846924F07305CA
:103EF0000C682C4323F002058B682B430A4DA84223
:103F00000BD123F00805CB6822F440722B434D6996
:103F100023F0040315438A692A4342608461496897
:103F20004163036230BD0000002C014030B5026ADD
:103F3000036A23F010030362436884690D6824F464
:103F4000E64444EA05248D6822F0200242EA051284
:103F50000B4DA8420ED1CD6822F0800242EA051234
:103F60004D6923F4406343EA85038D6922F04002E2
:103F700043EA85034360846149688163026230BD1E
:103F8000002C014030B5036A026A22F4807202629A
:103F90004268C46923F4007324F073050C682C4351
:103FA0008D6843EA05230C4DA8420ED1CD6823F459
:103FB000006343EA05234D6922F4405242EA0512A8
:103FC0008D6923F4806342EA05124260C461496846
:103FD000C163036230BD0000002C014030B5046AAB
:103FE000026A22F4805202624268C3690D6823F4B7
:103FF000E64343EA05238D6824F4005444EA05347B
:10400000064DA84204D14D6922F4804242EA85124D
:104010004260C36149680164046230BD002C014004
:1040200010B5036A046A24F001040462846924F070
:10403000F00444EA021423F00A020A438461026293
:1040400010BD10B5036A046A24F010040462846988
:1040500023F0A00324F4704444EA023243EA01113D
:104060008261016210BD10B5406A0021C185C18422
:10407000FEF7D9F810BD70B5446A2068406994F81D
:104080004110C0F3C0100025212904D118B1E584E6
:10409000204600F08EF82068406994F84210C0F382
:1040A0008010222904D118B1E585204600F05AF885
:1040B000606C40F0100060642046FEF7B4F870BDFC
:1040C00010B50146406A096809684FF00002890688
:1040D0002ED4C28501680C3151E8003F23F480736F
:1040E00041E80034002CF5D10168143151E8003F5B
:1040F00023F0010341E80034002CF5D101681431AC
:1041000051E8003F23F0400341E80034002CF5D192
:10411000202180F84210016B012909D101680C317E
:1041200051E8003F23F0100341E80034002CF5D1A2
:104130004263016B012902D0FEF7D4FA10BD818DD4
:10414000FEF738F810BD10B5406A01214163016BDC
:10415000012902D0FEF7C7FA10BD818D4908FEF78C
:1041600029F810BD01680C3151E8002F22F490723B
:1041700041E80023002BF5D10168143151E8002FEC
:1041800022F0010241E80023002BF5D1016B012947
:1041900009D101680C3151E8002F22F0100241E8EA
:1041A0000023002BF5D1202180F84210002101636B
:1041B000704701680C3151E8002F22F0C00241E83D
:1041C0000023002BF5D1202180F84110704708B55D
:1041D00090F84210222901D0022008BD82684FF4D5
:1041E00080539A4201D1016921B1816A9A421BD060
:1041F0004AB10AE00268816A5268C2F308020A8082
:10420000816A891C08E0026972B10268526802F092
:104210007F020A70816A491C8162C18D491E0904AE
:10422000090CC18503D01BE002685268F1E7016800
:10423000CA6822F02002CA600168CA6822F480724B
:10424000CA6001684A6922F001024A61202180F8AF
:10425000421000214163026B012A03D0FEF742FAAB
:10426000002008BD016301680C3151E8002F22F0E5
:10427000100241E80023002BF5D101680A68D2063C
:1042800002D50A6849680091818DFDF793FFE7E741
:1042900070B5044600680169E26821F44051114399
:1042A00001612169A0680843616908432168CA68FF
:1042B00041F20C639A430243CA6020684169A269D3
:1042C00021F44071114341611E492068884202D1A6
:1042D000FDF75EFB01E0FDF74BFB00EBC00101EBDE
:1042E0000012606864218000B2FBF0F3B3FBF1F3CD
:1042F0006FF018067343B2FBF0F5B2FBF0F605EB76
:104300008305322303EB0515B5FBF1F5B6FBF1F69A
:1043100005F0F00505EB0615B2FBF0F6B2FBF0F088
:10432000B0FBF1F06FF01802504306EB800003EB96
:104330000010B0FBF1F0216800F00F002844886005
:1043400070BD00000038014038B5816204468285A6
:10435000002013466064222284F84220E56B1B4A49
:10436000AA62E56B1A4AEA62E56B1A4A2A63E26BB3
:1043700050630A462168E06B091DFCF735FC206894
:10438000016840680090206948B120680C3050E80E
:10439000001F41F4807140E80012002AF5D1206826
:1043A000143050E8001F41F0010140E80012002ADB
:1043B000F5D12068143050E8001F41F0400140E87A
:1043C0000012002AF5D1002038BD0000C1400008CD
:1043D00047410008774000082DE9F8439846174602
:1043E0000D460446089E24E0701C22D0FCF740FDD8
:1043F000A0EB0800B0421AD8CEB12068C1684907C6
:1044000017D5802D15D0402D13D00168C943090759
:104410000FD401680025406800902046FFF7A2FEF7
:104420000820606484F840500120BDE8F883032030
:10443000FBE72068006835EA000004D00020B8429D
:10444000D2D00020F1E70120F9E7000038B5194883
:10445000FDF7EAFE174800680168C90624D501681F
:10446000406800901348FDF7A6FE1348FCF770FA69
:104470001248017869B9104909684968C1F596710F
:10448000CAB20F490A70012101700E490E48FBF7AC
:10449000E3FF4FF4967421460A48FCF754F822468D
:1044A00008490448FEF710F9BDE838400148FDF717
:1044B000BBBE0000D4040020AC0500202700002073
:1044C00026000020410000206D010020FEE70907C2
:1044D000090E002804DB00F1E02080F8001470478A
:1044E00000F00F0000F1E02080F8141D7047303814
:1044F0000A2801D2012070470020704710B50446F9
:10450000FDF730FA0349B0FBF1F16143491EFDD2DA
:1045100010BD000000093D002DE9F041C1F30A5231
:10452000A2F2FF362F4A304B0D460446142E2FDAE6
:10453000002E12DA00F0A8F90022134600F020FD48
:104540004CD2002DA4BF0024254647DA25F00040B8
:10455000204318BF254D41D018E0DFF894C02CFA55
:1045600006F705EA070C5CEA040C08BFBDE8F08119
:1045700000F08AF90022134600F002FD2ED2002D31
:1045800003DA4FF48010F0400544BD43002425E0D9
:10459000332EC8BFBDE8F081A6F1140C4FF0FF37F1
:1045A00027FA0CF73C4208BFBDE8F08100F01EFD81
:1045B0000022134600F0E4FC10D2002D0DDA142E78
:1045C00008BF6D1C09D0C6F13400012101FA00F0CA
:1045D0002044A04238BF6D1C0446BC4329462046F7
:1045E000BDE8F0819C7500883CE4377E0000F0BF98
:1045F000FFFF0F0090B0FDF78FF8FFF7E3FBFFF729
:1046000025F8FEF7F5FFFEF7D5FFFFF75FF8FFF798
:104610007DF8FFF735F9FFF75FF9FFF789F9FFF745
:10462000E3F800212248FDF777FD0C212048FDF733
:1046300073FD87211F48FFF7A4F9FFF733FB4FF401
:10464000877700BFFFF7C8FA0120FCF705FB0620BB
:10465000FFF700FA06460520FFF7FCF9054608209B
:10466000FFF7F8F904460720FFF7F4F98DE870002A
:10467000034611A2322103A8FBF7AAFD82B26423EC
:1046800003A91248FEF730F80720FFF7E3F90023EB
:10469000FF221946009700F01BF801460720FFF79C
:1046A00065F9FFF7DDF96420FCF7D6FACAE70000E8
:1046B000440400200000484225356420253564204C
:1046C000253564202535640D0A000000D40400203F
:1046D00010B5401A029CE41A6043511A90FBF1F0A5
:1046E0001844C0B210BD00003EB542F210748DF8FF
:1046F0000400012301AA802106480094FCF72CFF46
:10470000012302AA802103480094FCF7FDFD9DF8D7
:1047100008003EBDF003002070B500F05DFD214AA9
:10472000214B00F02FFB00F07DF806466FF00B02E6
:1047300000201E4900F0F8FD04460D46304600F00A
:104740004BFD02460B462046294600F059F900224F
:10475000174B00F057FC0022164B00F095F8FFF7BE
:10476000DBFE00F0A5FAC5B20020FFF7BDFF04464E
:1047700000F07F0040F01001002000F041F82946D1
:10478000FE2000F03DF82146002000F039F802201C
:10479000FCF762FA44F0A101BDE87040002000F08F
:1047A0002FB80000713D0AD7A370ED3F84D7774141
:1047B0000000F03F0000E03F70B5044606200E46C2
:1047C00000EB84001546C9B2C0B200F019F807200A
:1047D00000EB8400C0B2C6F3072100F011F80820F6
:1047E00000EB8400E9B2C0B200F00AF8092000EB47
:1047F0008400C5F30721BDE87040C0B2AFF300806C
:104800001CB502238DF8040042F210708DF80510DB
:10481000009001AA80210248FCF79EFE1CBD00000A
:10482000F003002021F00042A2F16052B2F5801F97
:1048300001F0004328BFD2F17F6C0BD95FEA001C66
:1048400043EAC20242EB507018BF704728BF20F005
:1048500001007047B2F5801FBCBF184670474FEA91
:10486000410C1CF5001F02D2084600F026BD70B5B1
:1048700000F032FB00000089FFF7F6BF4FF0004068
:10488000A0F580007047000010B591EA030F48BF03
:1048900083F0004300F1BE83841A71EB030C05D250
:1048A000121943EB0C03001B61EB0C01DFF824E150
:1048B0004FEA1154A4EB135C1EEA430F18BF9EEAA3
:1048C000445F73D023EA0E03DCF1200E21EA045189
:1048D00043F4801332D322FA0CFE10EB0E0023FABD
:1048E0000CFE41EB0E01CCF1200E03FA0EFE10EB94
:1048F0000E0051F10001B1F5801FCCF1200E32D233
:1049000001EB045112FA0EF2BDE8104058BF704797
:10491000401C38BF5FEA420218BF7047002814BF2E
:1049200020F0010041F100014FEA410313F5001F9F
:1049300038BF7047A1F1C04100F01CBB012A43EB16
:104940000302ACF1200CDCF11F0E32BF4FF0000E61
:1049500023FA0CF310EB030041EB0451B4EB115FAD
:10496000D0D0A1EB045101F5801149085FEA300075
:1049700001EB04510ED350F1000038BF12FA0EFEC5
:1049800008D1BDE81040C9E7401C38BF5FEA4202C9
:10499000CAD1C3E7BDE810404FEA410313F5001F39
:1049A00038BF7047A1F1C04100F0E4BA9EEA445F0D
:1049B00008D011EA5E0FBDE8104004BF01F00041CD
:1049C00000207047BDE8104070B500F085FA00BFC8
:1049D00064FBBE3E0000E0FF02494FF0000000F023
:1049E00071BC00BF0000F87F491058BFC1F14041C1
:1049F0005B1058BFC3F140438B42EFF30080704718
:104A00002DE9C04130B4DFF8A0C23CEA111418BF50
:104A10003CEA131400F0EC8081EA03051CEA11144F
:104A200044EAD57418BF1CEA131500F0C780A4EB44
:104A300005044FF0004545EAC12145EAC32341EA98
:104A4000505143EA525304F17F74994204F5003403
:104A50004FEAC0204FEAC22208BF904200F09C807B
:104A60004FEA13650FF24016765D4FEA134506FBD9
:104A700005F7C7F1807706FB07F74FEAD737A7FBA3
:104A800003687642C8F58038A7FB06CE38BFA8F188
:104A9000010807FB08E64FF0000EA6FB028CE6FBC0
:104AA00003CEDCF1000CCEF1004E38BFAEF1010EAA
:104AB000A6FB0C584FF000074FF00005E6FB0E87F1
:104AC000A1FB08C6A0FB07CE16EB0E0645F10005BC
:104AD000E1FB076515F1E04E7EBFA4F580345FEA87
:104AE00046066D4116F1800745F100054FEA17278C
:104AF0004FEA066647EA0567A6F1DE46B6F1805F33
:104B00004FEA15251FD9384624F0010C05EBC47176
:104B1000BCF1FE6F01EB0C1102D8F0BCBDE80081C6
:104B200024425CBF01F5801E9EEAC47F02D4F0BC23
:104B3000BDE80081244238D4F0BCA1F1C041BDE8F9
:104B4000004100F017BA4FEAD22242EA43524FEA3C
:104B5000D323A7FB02864FEAD02040EA415007FB4F
:104B600003661EEA0E0F4FEAD12105FB026658BF0D
:104B7000A6EB0056B6EB00564FEA520E4EEAC37E45
:104B800018EB0E0E56EB530EBDD518EB02085E4126
:104B90007F1C55F10005B6E74FF480154FF0000774
:104BA0004FF000064FF00008ADE7F0BC4FF00000FA
:104BB00001F1C04101F00041BDE8008111EA0C1F84
:104BC0000CEA131500D00CE013EA0C1F00F025804E
:104BD0004FF00000F0BC81EA030101F00041BDE8A4
:104BE0000081F0BCBDE8004181EA030100F0C2B9D8
:104BF000F0BCBDE8004170B500F06EF9097EFC3EE6
:104C000000F007B881EA03014FF0000001F0004115
:104C1000704781EA030100F0ADB9F0BCBDE8004186
:104C20004FF0000021497047FFFDFBF9F7F5F4F262
:104C3000F0EEEDEBE9E8E6E4E3E1E0DEDDDBDAD837
:104C4000D7D5D4D3D1D0CFCDCCCBCAC8C7C6C5C495
:104C5000C2C1C0BFBEBDBCBBBAB9B8B7B6B5B4B3AC
:104C6000B2B1B0AFAEADACABAAA9A8A8A7A6A5A497
:104C7000A3A3A2A1A09F9F9E9D9C9C9B9A9999985B
:104C80009797969595949393929191908F8F8E8EFE
:104C90008D8C8C8B8B8A898988888787868585848B
:104CA00084838382828181800000FF070000F87F77
:104CB0004FEA1153A3F58063D3F11E03A8BFD3F1CC
:104CC000200C08DB4FF0004242EAC12252EA505267
:104CD00032FA03F0704709420BD4102BC4BF0020F6
:104CE000704703F5787CBCF1FF3F05D04FF0FF30F3
:104CF00070474FF00000704770B500F0EDF800BF4E
:104D00004992248000207047F0E7000051EA030C2C
:104D100017D41CF5801F58BFBCF5801F00F106801A
:104D2000994218BF704708BF9042704707D711F5E6
:104D3000801F58BF13F5801F19D4994270478942CC
:104D400070471CF5801F08D5BCF5801FF7D58B4236
:104D500018BF704708BF824270474FF4001C1CEB1D
:104D6000410F38BF1CEB430F01D28B42704770B527
:104D700000F0B2F8922449004FF000514FF08053F8
:104D8000FFF732BEDFF848C170B51CEA111E1EBF26
:104D90001CEA13159EEA0C0F95EA0C0F00F06F80C9
:104DA00081EA030423EA4C134EEAD47E21EA4C1133
:104DB00041F4801143F48013AE44A1FB024CA0FBEC
:104DC0000365AEF17F7E361955EB0C05A1FB034C54
:104DD0004CF10003A0FB021C16EB0C06654153F1DD
:104DE0000003094218BF46F0010613F4007F0BD1FF
:104DF0004FEA03314FEA0530340341EA155140EAE6
:104E000016506FF003020AE04FEAC3214FEAC520B3
:104E1000F40241EA555140EA56506FF0020202EBAB
:104E20002E4201EB025585EACE710AD05FEA440CAE
:104E300018BF24F0004450F1000041F1000120EAC5
:104E4000D47040F2FE7C624500D270BDA84214BF0F
:104E50004FF080444FF04044002E08BF0024BEF1C4
:104E6000806FA8BFA1F1C041BDE8704080F2828090
:104E70004FF0000001F1C04101F0004170479EEA8F
:104E80000C0F0CEA131518BF95EA0C0F06D04FF063
:104E9000000081EA030E0EF0004170BD00F01CF826
:104EA0008900013E00F007B800F009B84FEA430C52
:104EB0005FEA5C5C08D081EA030100F05BB84FEA6E
:104EC000410C5FEA5C5CF6D14FF00000014970478D
:104ED0000000FF070000F87F0EF1020E2EF0030E17
:104EE0005EF8046B364205D4012A43EB030515F541
:104EF000001F12D8012841EB010C1CF5001F0CD833
:104F00000ED14FEAD17C15F5001F0CEB4C0C0CF1C7
:104F1000020C08BF4CEBD37C04E04FF0080C01E01E
:104F20004FEAD37C0CEB4C0526FA05F606F0070693
:104F3000B6F1040C06D20EEB860CBDE870404CF0C6
:104F4000010C6047DFE80CF0090B02024FF0004152
:104F50004FF00000A1F5002170BD19461046012850
:104F600051EB010418BFD4F5001484BF002001F0F8
:104F7000004170BD0808A0F500114FEA31017047EB
:104F800053EA010C17D41CF5801F58BFBCF5801FD5
:104F900000F106808B4218BF704708BF82427047FD
:104FA00007D713F5801F58BF11F5801F19D48B4206
:104FB00070479B4270471CF5801F08D5BCF5801FC9
:104FC000F7D5994218BF704708BF904270474FF419
:104FD000001C1CEB430F38BF1CEB410F01D2994260
:104FE00070470FB40CBC03BCFFF7C1BE91EA030FBE
:104FF00010B581F000413FF54FAC83F0004300F065
:1050000009B8000010B591EA030F48BF83F00043D0
:105010003FF542AC841A71EB030C07D212198CF0E5
:10502000004C43EB0C03001B61EB0C01DFF8A4E127
:105030004FEA1154A4EB135C1EEA430F18BF9EEA1B
:10504000445F00F0B08023EA6E03524221EA04512B
:10505000C3EB6E0338BF5B1EDCF1200E25D322FAB2
:105060000CFE10EB0E0043FA0CFE41EB0E01CCF1EE
:10507000200E03FA0EFE10EB0E0051F10001CCF1F0
:10508000200E29D412FA0EF201EB0451BDE81040B3
:1050900058BF7047401C1CBFB2F1004F704700283A
:1050A0000CBF491C20F00100704712EB020E43EBCD
:1050B000030218BF4FF0010E4EEA4202ACF1200C81
:1050C000DCF11E0E54D943FA0CFE10EB0E0051F128
:1050D000FF31CCF11E0ED5D50EF1010E12FA0EFEE7
:1050E000404141EB010101EB445C5FEA5C5C10D99B
:1050F00010EBDE7001EB045138BFBEF1004FBDE88C
:10510000104018BF704700280CBF491C20F0010058
:10511000704730D24FEAD42C11F5001124F400640A
:105120001BD0B1FA81F20B3AA41AA41ED2F12003CB
:10513000914030FA03F31943904001EBCC71002CFD
:1051400001EB0451BDE81040A8BF704701F1C04118
:105150004FF0000001F000417047B0FA80F310FA00
:1051600003F100D110BDE41A173C4805C90AE4E771
:1051700001EB045110BD491001EB0451BDE8104092
:105180004FEA300002E04FF0000170474A0008BFCC
:105190000042F8D0B2F5001F28BF704701F000416F
:1051A0004FF0000070479EEA445F07D011EA5E0F9F
:1051B000BDE8104004BF002100207047BDE810404A
:1051C00070B5FFF789FE00BF40DFF63E83F0004177
:1051D000104670470000E0FF43004FEAD30C4FEA4F
:1051E0003C0C43401FBF40070CF1605113F0FE4FD1
:1051F00070471CF0006F03D100200CF00041704795
:105200000CF0004343EA507010B540EACC0000F0C7
:105210000EF800BF000000924FEA0001FFF7AABE9F
:105220004FF000414FF00000A1F5002170470EF152
:10523000020E2EF0030E5EF8044B244204D44FEA13
:105240004102B2F17F4F11D84FEA4003B3F17F4FD3
:105250000CD80ED14FEAD07CB2F17F4F0CEB4C0C46
:105260000CF1020C08BF4CEBD17C04E04FF0080CB1
:1052700001E04FEAD17C0CEB4C0324FA03F404F078
:105280000704B4F1040C06D20EEB840CBDE8104008
:105290004CF0010C6047DFE80CF0070802024FF009
:1052A0000040A0F5800010BD0846420018BFD2F1B2
:1052B000807288BF00F0004010BDFF2141EAD0504D
:1052C000C00570470CF00F03092B08BF082000F041
:1052D00059800A2B0BD0082B18BF704708BF1CF051
:1052E000400F0AD04FF000004FF0000170471CF053
:1052F000400F18BF4FF0004070471CF0100F08D04F
:1053000020F0704300F07F4242EAD3014FEA43703D
:10531000704700F0604021F07F4242EA000201F055
:105320007F4040EA727070474FF0FF0C4CF4E06C25
:105330001CEA11531CBF9CEA030C9445C2BFDA421D
:1053400001EB02517047002B0DD0BCF1000F0FD0C4
:10535000002A01F00041A4BF41F0E04141F07F612B
:105360004FF00000704701F000414FF0000070471F
:1053700050EA01334FF09B0C18BF4CF0806C7FF467
:105380002BAB70471CF4801F11D01CF4E02F03D00E
:105390006FEACC31490070474FF04050EFF3008284
:1053A00022F0704242EA000282F3008870474FF018
:1053B00000007047010202030405060708090A0BF2
:1053C0000C0D0E0F10100000000000000000010284
:1053D000030406070809000000000102030404009A
:1053E00000080000000000000002000100001000A2
:1053F00010540008000000203800000028010008B8
:105400004854000838000020E80C0000440100085F
:10541000000001004200010002000300040005003A
:1054200006000700080009000A000B000C000D0030
:105430000E000F001000000001000000100000002E
:085440000000000000127A00D8
:04000005080000ED02
:00000001FF
